{
  "contractName": "WebexMeeting",
  "abi": [
    {
      "constant": true,
      "inputs": [],
      "name": "mMeetingKey",
      "outputs": [
        {
          "name": "",
          "type": "string"
        }
      ],
      "payable": false,
      "stateMutability": "view",
      "type": "function"
    },
    {
      "constant": false,
      "inputs": [],
      "name": "startMeeting",
      "outputs": [
        {
          "name": "",
          "type": "string"
        }
      ],
      "payable": false,
      "stateMutability": "nonpayable",
      "type": "function"
    },
    {
      "constant": false,
      "inputs": [
        {
          "name": "meetingtopic",
          "type": "string"
        },
        {
          "name": "starttime",
          "type": "uint256"
        },
        {
          "name": "duration",
          "type": "uint256"
        }
      ],
      "name": "scheduleMeeting",
      "outputs": [
        {
          "name": "",
          "type": "string"
        }
      ],
      "payable": false,
      "stateMutability": "nonpayable",
      "type": "function"
    },
    {
      "constant": false,
      "inputs": [],
      "name": "getMeetingKey",
      "outputs": [
        {
          "name": "",
          "type": "string"
        }
      ],
      "payable": false,
      "stateMutability": "nonpayable",
      "type": "function"
    },
    {
      "constant": false,
      "inputs": [],
      "name": "getMeetingSite",
      "outputs": [
        {
          "name": "",
          "type": "string"
        }
      ],
      "payable": false,
      "stateMutability": "nonpayable",
      "type": "function"
    }
  ],
  "bytecode": "0x608060405234801561001057600080fd5b5061098e806100206000396000f30060806040526004361061006d576000357c0100000000000000000000000000000000000000000000000000000000900463ffffffff1680635d3033eb146100725780636742a09614610102578063b0161e6f14610192578063bbda530014610222578063cd1624a614610318575b600080fd5b34801561007e57600080fd5b506100876103a8565b6040518080602001828103825283818151815260200191508051906020019080838360005b838110156100c75780820151818401526020810190506100ac565b50505050905090810190601f1680156100f45780820380516001836020036101000a031916815260200191505b509250505060405180910390f35b34801561010e57600080fd5b5061011761044a565b6040518080602001828103825283818151815260200191508051906020019080838360005b8381101561015757808201518184015260208101905061013c565b50505050905090810190601f1680156101845780820380516001836020036101000a031916815260200191505b509250505060405180910390f35b34801561019e57600080fd5b506101a76104ec565b6040518080602001828103825283818151815260200191508051906020019080838360005b838110156101e75780820151818401526020810190506101cc565b50505050905090810190601f1680156102145780820380516001836020036101000a031916815260200191505b509250505060405180910390f35b34801561022e57600080fd5b5061029d600480360381019080803590602001908201803590602001908080601f01602080910402602001604051908101604052809392919081815260200183838082843782019150505050505091929192908035906020019092919080359060200190929190505050610529565b6040518080602001828103825283818151815260200191508051906020019080838360005b838110156102dd5780820151818401526020810190506102c2565b50505050905090810190601f16801561030a5780820380516001836020036101000a031916815260200191505b509250505060405180910390f35b34801561032457600080fd5b5061032d6107fa565b6040518080602001828103825283818151815260200191508051906020019080838360005b8381101561036d578082015181840152602081019050610352565b50505050905090810190601f16801561039a5780820380516001836020036101000a031916815260200191505b509250505060405180910390f35b606060008054600181600116156101000203166002900480601f0160208091040260200160405190810160405280929190818152602001828054600181600116156101000203166002900480156104405780601f1061041557610100808354040283529160200191610440565b820191906000526020600020905b81548152906001019060200180831161042357829003601f168201915b5050505050905090565b606060018054600181600116156101000203166002900480601f0160208091040260200160405190810160405280929190818152602001828054600181600116156101000203166002900480156104e25780601f106104b7576101008083540402835291602001916104e2565b820191906000526020600020905b8154815290600101906020018083116104c557829003601f168201915b5050505050905090565b60606040805190810160405280600d81526020017f5374617274204d656574696e6700000000000000000000000000000000000000815250905090565b606061053484610898565b1515156105a9576040517f08c379a00000000000000000000000000000000000000000000000000000000081526004018080602001828103825260158152602001807f6d656574696e6720746f706963206973206e756c6c000000000000000000000081525060200191505060405180910390fd5b83600290805190602001906105bf9291906108bd565b50600082111515610638576040517f08c379a000000000000000000000000000000000000000000000000000000000815260040180806020018281038252601c8152602001807f6d656574696e67206475726174696f6e206973206d757374203e20300000000081525060200191505060405180910390fd5b816003819055506000831115156106b7576040517f08c379a000000000000000000000000000000000000000000000000000000000815260040180806020018281038252601d8152602001807f6d656574696e6720737461727474696d65206973206d757374203e203000000081525060200191505060405180910390fd5b826004819055506040805190810160405280600981526020017f3334383339373531340000000000000000000000000000000000000000000000815250600090805190602001906107099291906108bd565b506040805190810160405280600c81526020017f676f2e77656265782e636f6d0000000000000000000000000000000000000000815250600190805190602001906107559291906108bd565b5060008054600181600116156101000203166002900480601f0160208091040260200160405190810160405280929190818152602001828054600181600116156101000203166002900480156107ec5780601f106107c1576101008083540402835291602001916107ec565b820191906000526020600020905b8154815290600101906020018083116107cf57829003601f168201915b505050505090509392505050565b60008054600181600116156101000203166002900480601f0160208091040260200160405190810160405280929190818152602001828054600181600116156101000203166002900480156108905780601f1061086557610100808354040283529160200191610890565b820191906000526020600020905b81548152906001019060200180831161087357829003601f168201915b505050505081565b600060608290506000815114156108b257600191506108b7565b600091505b50919050565b828054600181600116156101000203166002900490600052602060002090601f016020900481019282601f106108fe57805160ff191683800117855561092c565b8280016001018555821561092c579182015b8281111561092b578251825591602001919060010190610910565b5b509050610939919061093d565b5090565b61095f91905b8082111561095b576000816000905550600101610943565b5090565b905600a165627a7a72305820d76f64de047c2d31ff9efa56779f2a73ad74f1608cc64f254b8d555b759e8fb00029",
  "source": "pragma solidity ^0.4.23;\n\ncontract WebexMeeting {\n  string public mMeetingKey;\n  string mMeetingSite;\n  string mMeetingTopic;\n  uint mDuration;\n  uint256 mStartTime;\n\n  function startMeeting() public returns (string) {\n    return (\"Start Meeting\");\n  }\n\n  function scheduleMeeting(string meetingtopic, uint256 starttime, uint duration) public returns (string) {\n    require (!stringIsNull(meetingtopic), \"meeting topic is null\");\n    mMeetingTopic = meetingtopic;\n\n    require (duration > 0, \"meeting duration is must > 0\");\n    mDuration = duration;\n\n    require (starttime > 0, \"meeting starttime is must > 0\");\n    mStartTime = starttime;\n\n    \"Log\";\n    gasleft();\n    msg.sender;\n    msg.data;\n    gasleft();\n\n    mMeetingKey = \"348397514\";\n    mMeetingSite = \"go.webex.com\";\n    return mMeetingKey;\n  }\n\n  function getMeetingKey() public returns (string) {\n    return string(mMeetingKey);\n  }\n\n  function getMeetingSite() public returns (string) {\n    return string(mMeetingSite);\n  }\n\n  function stringIsNull(string str) private returns (bool) {\n      bytes memory strb = bytes(str);\n      if(strb.length == 0){\n        return true;\n      } else {\n        return false;\n      }\n  }\n\n}\n",
  "sourcePath": "/Users/gangwan/Documents/work/go/src/github.com/gangwn/dvc/api/contracts_deploy/contracts/WebexMeeting.sol",
  "compiler": {
    "name": "solc",
    "version": "0.4.24+commit.e67f0147.Emscripten.clang"
  },
  "schemaVersion": "2.0.1",
  "updatedAt": "2018-08-23T10:55:37.113Z"
}