{
  "contractName": "CCSService",
  "abi": [
    {
      "constant": true,
      "inputs": [],
      "name": "serviceManager",
      "outputs": [
        {
          "name": "",
          "type": "address"
        }
      ],
      "payable": false,
      "stateMutability": "view",
      "type": "function"
    },
    {
      "constant": true,
      "inputs": [],
      "name": "fixedSupplyToken",
      "outputs": [
        {
          "name": "",
          "type": "address"
        }
      ],
      "payable": false,
      "stateMutability": "view",
      "type": "function"
    },
    {
      "inputs": [
        {
          "name": "serviceManagerAddr",
          "type": "address"
        },
        {
          "name": "tokenAddr",
          "type": "address"
        }
      ],
      "payable": false,
      "stateMutability": "nonpayable",
      "type": "constructor"
    },
    {
      "anonymous": false,
      "inputs": [
        {
          "indexed": false,
          "name": "confId",
          "type": "string"
        },
        {
          "indexed": false,
          "name": "ccsAddress",
          "type": "address"
        },
        {
          "indexed": false,
          "name": "ip",
          "type": "string"
        },
        {
          "indexed": false,
          "name": "port",
          "type": "int256"
        },
        {
          "indexed": false,
          "name": "peerId",
          "type": "string"
        }
      ],
      "name": "NewJobCreated",
      "type": "event"
    },
    {
      "constant": false,
      "inputs": [
        {
          "name": "ip",
          "type": "string"
        },
        {
          "name": "port",
          "type": "int256"
        },
        {
          "name": "peerId",
          "type": "string"
        }
      ],
      "name": "registerCCS",
      "outputs": [],
      "payable": false,
      "stateMutability": "nonpayable",
      "type": "function"
    },
    {
      "constant": true,
      "inputs": [],
      "name": "getFirstCCS",
      "outputs": [
        {
          "name": "",
          "type": "address"
        },
        {
          "name": "",
          "type": "string"
        },
        {
          "name": "",
          "type": "int256"
        },
        {
          "name": "",
          "type": "string"
        }
      ],
      "payable": false,
      "stateMutability": "view",
      "type": "function"
    },
    {
      "constant": true,
      "inputs": [
        {
          "name": "addr",
          "type": "address"
        }
      ],
      "name": "getNextCCS",
      "outputs": [
        {
          "name": "",
          "type": "address"
        },
        {
          "name": "",
          "type": "string"
        },
        {
          "name": "",
          "type": "int256"
        },
        {
          "name": "",
          "type": "string"
        }
      ],
      "payable": false,
      "stateMutability": "view",
      "type": "function"
    },
    {
      "constant": false,
      "inputs": [
        {
          "name": "confId",
          "type": "string"
        },
        {
          "name": "ccsAddress",
          "type": "address"
        }
      ],
      "name": "newJob",
      "outputs": [],
      "payable": false,
      "stateMutability": "nonpayable",
      "type": "function"
    },
    {
      "constant": true,
      "inputs": [
        {
          "name": "confId",
          "type": "string"
        }
      ],
      "name": "getCCS",
      "outputs": [
        {
          "name": "",
          "type": "address"
        },
        {
          "name": "",
          "type": "string"
        },
        {
          "name": "",
          "type": "int256"
        },
        {
          "name": "",
          "type": "string"
        }
      ],
      "payable": false,
      "stateMutability": "view",
      "type": "function"
    },
    {
      "constant": false,
      "inputs": [
        {
          "name": "addr",
          "type": "address"
        }
      ],
      "name": "completeJob",
      "outputs": [],
      "payable": false,
      "stateMutability": "nonpayable",
      "type": "function"
    }
  ],
  "bytecode": "0x608060405234801561001057600080fd5b50604051604080611820833981018060405281019080805190602001909291908051906020019092919050505081806000806101000a81548173ffffffffffffffffffffffffffffffffffffffff021916908373ffffffffffffffffffffffffffffffffffffffff1602179055505080600160006101000a81548173ffffffffffffffffffffffffffffffffffffffff021916908373ffffffffffffffffffffffffffffffffffffffff160217905550505061174f806100d16000396000f30060806040526004361061008e576000357c0100000000000000000000000000000000000000000000000000000000900463ffffffff168063103d2da214610093578063339fcb3f146100d65780633998fdd31461023057806349191de614610287578063afff130c146103bd578063d5ed1a831461051f578063e6cb0ced14610576578063efe4c5cc146105d3575b600080fd5b34801561009f57600080fd5b506100d4600480360381019080803573ffffffffffffffffffffffffffffffffffffffff16906020019092919050505061062e565b005b3480156100e257600080fd5b5061010f600480360381019080803590602001908201803590602001919091929391929390505050610927565b604051808573ffffffffffffffffffffffffffffffffffffffff1673ffffffffffffffffffffffffffffffffffffffff1681526020018060200184815260200180602001838103835286818151815260200191508051906020019080838360005b8381101561018b578082015181840152602081019050610170565b50505050905090810190601f1680156101b85780820380516001836020036101000a031916815260200191505b50838103825284818151815260200191508051906020019080838360005b838110156101f15780820151818401526020810190506101d6565b50505050905090810190601f16801561021e5780820380516001836020036101000a031916815260200191505b50965050505050505060405180910390f35b34801561023c57600080fd5b50610245610b9b565b604051808273ffffffffffffffffffffffffffffffffffffffff1673ffffffffffffffffffffffffffffffffffffffff16815260200191505060405180910390f35b34801561029357600080fd5b5061029c610bc0565b604051808573ffffffffffffffffffffffffffffffffffffffff1673ffffffffffffffffffffffffffffffffffffffff1681526020018060200184815260200180602001838103835286818151815260200191508051906020019080838360005b838110156103185780820151818401526020810190506102fd565b50505050905090810190601f1680156103455780820380516001836020036101000a031916815260200191505b50838103825284818151815260200191508051906020019080838360005b8381101561037e578082015181840152602081019050610363565b50505050905090810190601f1680156103ab5780820380516001836020036101000a031916815260200191505b50965050505050505060405180910390f35b3480156103c957600080fd5b506103fe600480360381019080803573ffffffffffffffffffffffffffffffffffffffff169060200190929190505050610de4565b604051808573ffffffffffffffffffffffffffffffffffffffff1673ffffffffffffffffffffffffffffffffffffffff1681526020018060200184815260200180602001838103835286818151815260200191508051906020019080838360005b8381101561047a57808201518184015260208101905061045f565b50505050905090810190601f1680156104a75780820380516001836020036101000a031916815260200191505b50838103825284818151815260200191508051906020019080838360005b838110156104e05780820151818401526020810190506104c5565b50505050905090810190601f16801561050d5780820380516001836020036101000a031916815260200191505b50965050505050505060405180910390f35b34801561052b57600080fd5b506105346110c4565b604051808273ffffffffffffffffffffffffffffffffffffffff1673ffffffffffffffffffffffffffffffffffffffff16815260200191505060405180910390f35b34801561058257600080fd5b506105d1600480360381019080803590602001908201803590602001919091929391929390803590602001909291908035906020019082018035906020019190919293919293905050506110ea565b005b3480156105df57600080fd5b5061062c600480360381019080803590602001908201803590602001919091929391929390803573ffffffffffffffffffffffffffffffffffffffff1690602001909291905050506111f7565b005b600160009054906101000a900473ffffffffffffffffffffffffffffffffffffffff1673ffffffffffffffffffffffffffffffffffffffff166370a08231826040518263ffffffff167c0100000000000000000000000000000000000000000000000000000000028152600401808273ffffffffffffffffffffffffffffffffffffffff1673ffffffffffffffffffffffffffffffffffffffff168152602001915050602060405180830381600087803b1580156106eb57600080fd5b505af11580156106ff573d6000803e3d6000fd5b505050506040513d602081101561071557600080fd5b810190808051906020019092919050505050600160009054906101000a900473ffffffffffffffffffffffffffffffffffffffff1673ffffffffffffffffffffffffffffffffffffffff1663a9059cbb82620186a06040518363ffffffff167c0100000000000000000000000000000000000000000000000000000000028152600401808373ffffffffffffffffffffffffffffffffffffffff1673ffffffffffffffffffffffffffffffffffffffff16815260200182815260200192505050602060405180830381600087803b1580156107ef57600080fd5b505af1158015610803573d6000803e3d6000fd5b505050506040513d602081101561081957600080fd5b810190808051906020019092919050505050600160009054906101000a900473ffffffffffffffffffffffffffffffffffffffff1673ffffffffffffffffffffffffffffffffffffffff166370a08231826040518263ffffffff167c0100000000000000000000000000000000000000000000000000000000028152600401808273ffffffffffffffffffffffffffffffffffffffff1673ffffffffffffffffffffffffffffffffffffffff168152602001915050602060405180830381600087803b1580156108e857600080fd5b505af11580156108fc573d6000803e3d6000fd5b505050506040513d602081101561091257600080fd5b81019080805190602001909291905050505050565b6000606060006060600080600688886040518083838082843782019150509250505090815260200160405180910390209150600073ffffffffffffffffffffffffffffffffffffffff168260000160009054906101000a900473ffffffffffffffffffffffffffffffffffffffff1673ffffffffffffffffffffffffffffffffffffffff16141515156109b957600080fd5b600560008360000160009054906101000a900473ffffffffffffffffffffffffffffffffffffffff1673ffffffffffffffffffffffffffffffffffffffff1673ffffffffffffffffffffffffffffffffffffffff16815260200190815260200160002090508160000160009054906101000a900473ffffffffffffffffffffffffffffffffffffffff1681600001826001015483600201828054600181600116156101000203166002900480601f016020809104026020016040519081016040528092919081815260200182805460018160011615610100020316600290048015610ae55780601f10610aba57610100808354040283529160200191610ae5565b820191906000526020600020905b815481529060010190602001808311610ac857829003601f168201915b50505050509250808054600181600116156101000203166002900480601f016020809104026020016040519081016040528092919081815260200182805460018160011615610100020316600290048015610b815780601f10610b5657610100808354040283529160200191610b81565b820191906000526020600020905b815481529060010190602001808311610b6457829003601f168201915b505050505090509550955095509550505092959194509250565b6000809054906101000a900473ffffffffffffffffffffffffffffffffffffffff1681565b6000606060006060610bd061165c565b600080610bdf6002600061151d565b92506000836001600281101515610bf257fe5b6020020151111515610c0357600080fd5b60036000846001600281101515610c1657fe5b6020020151815260200190815260200160002060009054906101000a900473ffffffffffffffffffffffffffffffffffffffff169150600560008373ffffffffffffffffffffffffffffffffffffffff1673ffffffffffffffffffffffffffffffffffffffff16815260200190815260200160002090508181600001826001015483600201828054600181600116156101000203166002900480601f016020809104026020016040519081016040528092919081815260200182805460018160011615610100020316600290048015610d305780601f10610d0557610100808354040283529160200191610d30565b820191906000526020600020905b815481529060010190602001808311610d1357829003601f168201915b50505050509250808054600181600116156101000203166002900480601f016020809104026020016040519081016040528092919081815260200182805460018160011615610100020316600290048015610dcc5780601f10610da157610100808354040283529160200191610dcc565b820191906000526020600020905b815481529060010190602001808311610daf57829003601f168201915b50505050509050965096509650965050505090919293565b60006060600060606000610df661165c565b600080600560008a73ffffffffffffffffffffffffffffffffffffffff1673ffffffffffffffffffffffffffffffffffffffff1681526020019081526020016000209350600084600401541415610e7d57600080602060405190810160405280600081525090809050602060405190810160405280600081525097509750975097506110b9565b610e8c6002856004015461151d565b92506000836001600281101515610e9f57fe5b60200201511415610ee057600080602060405190810160405280600081525090809050602060405190810160405280600081525097509750975097506110b9565b60036000846001600281101515610ef357fe5b6020020151815260200190815260200160002060009054906101000a900473ffffffffffffffffffffffffffffffffffffffff169150600560008373ffffffffffffffffffffffffffffffffffffffff1673ffffffffffffffffffffffffffffffffffffffff16815260200190815260200160002090508181600001826001015486600201828054600181600116156101000203166002900480601f01602080910402602001604051908101604052809291908181526020018280546001816001161561010002031660029004801561100d5780601f10610fe25761010080835404028352916020019161100d565b820191906000526020600020905b815481529060010190602001808311610ff057829003601f168201915b50505050509250808054600181600116156101000203166002900480601f0160208091040260200160405190810160405280929190818152602001828054600181600116156101000203166002900480156110a95780601f1061107e576101008083540402835291602001916110a9565b820191906000526020600020905b81548152906001019060200180831161108c57829003601f168201915b5050505050905097509750975097505b505050509193509193565b600160009054906101000a900473ffffffffffffffffffffffffffffffffffffffff1681565b6000600560003373ffffffffffffffffffffffffffffffffffffffff1673ffffffffffffffffffffffffffffffffffffffff16815260200190815260200160002090506000816004015414151561114057600080fd5b858582600001919061115392919061167e565b50838160010181905550828282600201919061117092919061167e565b50600160045401600481905550600454816004018190555033600360008360040154815260200190815260200160002060006101000a81548173ffffffffffffffffffffffffffffffffffffffff021916908373ffffffffffffffffffffffffffffffffffffffff1602179055506111ef600282600401546001611597565b505050505050565b600080600685856040518083838082843782019150509250505090815260200160405180910390209150600073ffffffffffffffffffffffffffffffffffffffff168260000160009054906101000a900473ffffffffffffffffffffffffffffffffffffffff1673ffffffffffffffffffffffffffffffffffffffff1614151561128057600080fd5b828260000160006101000a81548173ffffffffffffffffffffffffffffffffffffffff021916908373ffffffffffffffffffffffffffffffffffffffff160217905550600560008360000160009054906101000a900473ffffffffffffffffffffffffffffffffffffffff1673ffffffffffffffffffffffffffffffffffffffff1673ffffffffffffffffffffffffffffffffffffffff16815260200190815260200160002090508060030185859091806001815401808255809150509060018203906000526020600020016000909192939091929390919290919250919061136a92919061167e565b50507e6ac72963ad82ee2c6b343d35534a93617f78a3e310bac3a81770d21a0c75fa8585858460000185600101548660020160405180806020018673ffffffffffffffffffffffffffffffffffffffff1673ffffffffffffffffffffffffffffffffffffffff168152602001806020018581526020018060200184810384528a8a82818152602001925080828437820191505084810383528781815460018160011615610100020316600290048152602001915080546001816001161561010002031660029004801561147e5780601f106114535761010080835404028352916020019161147e565b820191906000526020600020905b81548152906001019060200180831161146157829003601f168201915b50508481038252858181546001816001161561010002031660029004815260200191508054600181600116156101000203166002900480156115015780601f106114d657610100808354040283529160200191611501565b820191906000526020600020905b8154815290600101906020018083116114e457829003601f168201915b5050995050505050505050505060405180910390a15050505050565b61152561165c565b60408051908101604052808460000160008581526020019081526020016000206000801515151581526020019081526020016000205481526020018460000160008581526020019081526020016000206000600115151515815260200190815260200160002054815250905092915050565b6115a483600084846115a9565b505050565b60008460000160008581526020019081526020016000206000831515151581526020019081526020016000205490506115e4858585856115f7565b6115f0858483856115f7565b5050505050565b828460000160008481526020019081526020016000206000831515151515815260200190815260200160002081905550818460000160008581526020019081526020016000206000831515151581526020019081526020016000208190555050505050565b6040805190810160405280600290602082028038833980820191505090505090565b828054600181600116156101000203166002900490600052602060002090601f016020900481019282601f106116bf57803560ff19168380011785556116ed565b828001600101855582156116ed579182015b828111156116ec5782358255916020019190600101906116d1565b5b5090506116fa91906116fe565b5090565b61172091905b8082111561171c576000816000905550600101611704565b5090565b905600a165627a7a723058204664b5c3ba33278c776923b706ce0bb0edcc51a79915b65256d188b8a55e23d80029",
  "source": "pragma solidity ^0.4.23;\n\nimport \"./IService.sol\";\nimport \"./FixedSupplyToken.sol\";\n\nimport 'LibCLL/LibCLL.sol';\n\ncontract CCSService is IService {\n     FixedSupplyToken public fixedSupplyToken;\n\n    using LibCLLu for LibCLLu.CLL;\n\n    struct CCS {\n        string ip;\n        int port;\n        string peerId;\n        string[] servedConfs;\n        uint ccsId;\n    }\n\n    LibCLLu.CLL private ccsIdList;\n    mapping(uint => address) private ccsIdAddressMap;\n\n    uint ccsNum;\n\n    mapping(address => CCS) private ccss;\n\n    struct Job {\n            address ccsAddress;\n            string confId;\n        }\n\n    mapping(string => Job) private jobs;\n\n    event NewJobCreated(string confId, address ccsAddress, string ip, int port, string peerId);\n\n    constructor(address serviceManagerAddr, address tokenAddr) public IService(serviceManagerAddr) {\n        fixedSupplyToken = FixedSupplyToken(tokenAddr);\n    }\n\n    function registerCCS(string ip, int port, string peerId) external {\n        CCS storage ccs = ccss[msg.sender];\n\n        require(ccs.ccsId == 0);\n\n        ccs.ip = ip;\n        ccs.port = port;\n        ccs.peerId = peerId;\n\n        ccsNum = ccsNum + 1;\n        ccs.ccsId = ccsNum;\n\n        ccsIdAddressMap[ccs.ccsId] = msg.sender;\n\n        LibCLLu.push(ccsIdList, ccs.ccsId, true);\n    }\n\n    function getFirstCCS() view external returns (address, string, int, string) {\n        uint[2] memory first = LibCLLu.getNode(ccsIdList, 0);\n        require(first[1] > 0);\n\n        address addr = ccsIdAddressMap[first[1]];\n        CCS storage ccs = ccss[addr];\n\n        return (addr, ccs.ip, ccs.port, ccs.peerId);\n    }\n\n    function getNextCCS(address addr) view external returns (address, string, int, string) {\n        CCS storage ccs = ccss[addr];\n        if (ccs.ccsId == 0) {\n            return (address(0), \"\", 0, \"\");\n        }\n\n        uint[2] memory nebor = LibCLLu.getNode(ccsIdList, ccs.ccsId);\n        if (nebor[1] == 0) {\n            return (address(0), \"\", 0, \"\");\n        }\n\n        address nextAddr = ccsIdAddressMap[nebor[1]];\n        CCS storage ccsNext = ccss[nextAddr];\n\n        return (nextAddr, ccsNext.ip, ccsNext.port, ccs.peerId);\n    }\n\n    function newJob(string confId, address ccsAddress) external  {\n        Job storage job = jobs[confId];\n\n        require(job.ccsAddress == address(0));\n\n        job.ccsAddress = ccsAddress;\n\n        CCS storage ccs = ccss[job.ccsAddress];\n        ccs.servedConfs.push(confId);\n\n        emit NewJobCreated(confId, ccsAddress, ccs.ip, ccs.port, ccs.peerId);\n    }\n\n    function getCCS(string confId) view external returns (address, string, int, string) {\n        Job storage job = jobs[confId];\n        require(job.ccsAddress != address(0));\n\n        CCS storage ccs = ccss[job.ccsAddress];\n        return (job.ccsAddress, ccs.ip, ccs.port, ccs.peerId);\n    }\n \n     function completeJob(address addr) external {\n\n        fixedSupplyToken.balanceOf(addr);\n        fixedSupplyToken.transfer(addr, 100000);\n        fixedSupplyToken.balanceOf(addr);\n    }\n\n}\n",
  "sourcePath": "/Users/gangwan/Documents/work/go/src/github.com/gangwn/dvc/api/contract/contracts/CCSService.sol",
  "compiler": {
    "name": "solc",
    "version": "0.4.24+commit.e67f0147.Emscripten.clang"
  },
  "schemaVersion": "2.0.1",
  "updatedAt": "2018-10-13T04:22:51.667Z"
}