{
  "contractName": "ConferenceService",
  "abi": [
    {
      "anonymous": false,
      "inputs": [
        {
          "indexed": false,
          "name": "creatorAddr",
          "type": "address"
        },
        {
          "indexed": false,
          "name": "confId",
          "type": "string"
        },
        {
          "indexed": false,
          "name": "topic",
          "type": "string"
        },
        {
          "indexed": false,
          "name": "startTime",
          "type": "uint256"
        },
        {
          "indexed": false,
          "name": "duration",
          "type": "uint256"
        },
        {
          "indexed": false,
          "name": "invitees",
          "type": "address[]"
        }
      ],
      "name": "ConferenceScheduled",
      "type": "event"
    },
    {
      "constant": false,
      "inputs": [
        {
          "name": "confId",
          "type": "string"
        },
        {
          "name": "topic",
          "type": "string"
        },
        {
          "name": "startTime",
          "type": "uint256"
        },
        {
          "name": "duration",
          "type": "uint256"
        },
        {
          "name": "invitees",
          "type": "address[]"
        }
      ],
      "name": "scheduleConference",
      "outputs": [],
      "payable": false,
      "stateMutability": "nonpayable",
      "type": "function"
    }
  ],
  "bytecode": "0x608060405234801561001057600080fd5b5061063f806100206000396000f300608060405260043610610041576000357c0100000000000000000000000000000000000000000000000000000000900463ffffffff168063ec35ea1514610046575b600080fd5b34801561005257600080fd5b506100c360048036038101908080359060200190820180359060200191909192939192939080359060200190820180359060200191909192939192939080359060200190929190803590602001909291908035906020019082018035906020019190919293919293905050506100c5565b005b600073__Utils_________________________________63d04ba0b688886040518363ffffffff167c0100000000000000000000000000000000000000000000000000000000028152600401808060200182810382528484828181526020019250808284378201915050935050505060206040518083038186803b15801561014c57600080fd5b505af4158015610160573d6000803e3d6000fd5b505050506040513d602081101561017657600080fd5b81019080805190602001909291905050501515156101fc576040517f08c379a00000000000000000000000000000000000000000000000000000000081526004018080602001828103825260158152602001807f6d656574696e6720746f706963206973206e756c6c000000000000000000000081525060200191505060405180910390fd5b600084111515610274576040517f08c379a00000000000000000000000000000000000000000000000000000000081526004018080602001828103825260198152602001807f6d656574696e67206475726174696f6e206d757374203e20300000000000000081525060200191505060405180910390fd5b6000851115156102ec576040517f08c379a000000000000000000000000000000000000000000000000000000000815260040180806020018281038252601b8152602001807f6d656574696e672073746172742074696d65206d757374203e2030000000000081525060200191505060405180910390fd5b600089896040518083838082843782019150509250505090815260200160405180910390209050888882600001919061032692919061048b565b50338160010160006101000a81548173ffffffffffffffffffffffffffffffffffffffff021916908373ffffffffffffffffffffffffffffffffffffffff160217905550868682600201919061037d92919061048b565b5084816003018190555083816004018190555082828260050191906103a392919061050b565b507f9687a96d2065c77c0926ca0180854e8adce339c57e9e6e9b5b7e0a2a5386a87f338a8a8a8a8a8a8a8a604051808a73ffffffffffffffffffffffffffffffffffffffff1673ffffffffffffffffffffffffffffffffffffffff16815260200180602001806020018781526020018681526020018060200184810384528c8c82818152602001925080828437820191505084810383528a8a828181526020019250808284378201915050848103825286868281815260200192506020028082843782019150509c5050505050505050505050505060405180910390a1505050505050505050565b828054600181600116156101000203166002900490600052602060002090601f016020900481019282601f106104cc57803560ff19168380011785556104fa565b828001600101855582156104fa579182015b828111156104f95782358255916020019190600101906104de565b5b50905061050791906105ab565b5090565b82805482825590600052602060002090810192821561059a579160200282015b8281111561059957823573ffffffffffffffffffffffffffffffffffffffff168260006101000a81548173ffffffffffffffffffffffffffffffffffffffff021916908373ffffffffffffffffffffffffffffffffffffffff1602179055509160200191906001019061052b565b5b5090506105a791906105d0565b5090565b6105cd91905b808211156105c95760008160009055506001016105b1565b5090565b90565b61061091905b8082111561060c57600081816101000a81549073ffffffffffffffffffffffffffffffffffffffff0219169055506001016105d6565b5090565b905600a165627a7a72305820d819ec93623aa857a7226167a4c0e859527e0d8cc6b1e3ae6a53da26dbc4cd180029",
  "source": "pragma solidity ^0.4.23;\n\nimport \"./Utils.sol\";\nimport \"./IService.sol\";\n\ncontract ConferenceService is IService {\n\n    enum ConferenceStatus {Inactive, Active}\n\n    event ConferenceScheduled(address creatorAddr, string confId, string topic, uint256 startTime, uint duration, address[] invitees);\n\n    mapping(string => Conference) private conferences;\n\n    function scheduleConference(string confId, string topic, uint256 startTime, uint duration, address[] invitees) external {\n        require (!Utils.isNull(topic), \"meeting topic is null\");\n        require (duration > 0, \"meeting duration must > 0\");\n        require (startTime > 0, \"meeting start time must > 0\");\n\n        Conference storage conf = conferences[confId];\n        conf.confId = confId;\n        conf.creatorAddr = msg.sender;\n        conf.topic = topic;\n        conf.startTime = startTime;\n        conf.duration = duration;\n        conf.invitees = invitees;\n\n        // to do: store this conference to userservice contract\n\n\n        emit ConferenceScheduled(msg.sender, confId, topic, startTime, duration, invitees);\n    }\n\n\n}\n",
  "sourcePath": "/Users/gangwan/Documents/work/go/src/github.com/gangwn/dvc/api/contract/contracts/ConferenceService.sol",
  "compiler": {
    "name": "solc",
    "version": "0.4.24+commit.e67f0147.Emscripten.clang"
  },
  "schemaVersion": "2.0.1",
  "updatedAt": "2018-08-28T11:19:01.912Z"
}