{
  "contractName": "ConferenceService",
  "abi": [
    {
      "constant": true,
      "inputs": [],
      "name": "serviceManager",
      "outputs": [
        {
          "name": "",
          "type": "address"
        }
      ],
      "payable": false,
      "stateMutability": "view",
      "type": "function"
    },
    {
      "inputs": [
        {
          "name": "serviceManagerAddr",
          "type": "address"
        }
      ],
      "payable": false,
      "stateMutability": "nonpayable",
      "type": "constructor"
    },
    {
      "anonymous": false,
      "inputs": [
        {
          "indexed": false,
          "name": "creatorAddr",
          "type": "address"
        },
        {
          "indexed": false,
          "name": "confId",
          "type": "string"
        },
        {
          "indexed": false,
          "name": "topic",
          "type": "string"
        },
        {
          "indexed": false,
          "name": "startTime",
          "type": "uint256"
        },
        {
          "indexed": false,
          "name": "duration",
          "type": "uint256"
        },
        {
          "indexed": false,
          "name": "invitees",
          "type": "address[]"
        }
      ],
      "name": "ConferenceScheduled",
      "type": "event"
    },
    {
      "constant": false,
      "inputs": [
        {
          "name": "confId",
          "type": "string"
        },
        {
          "name": "topic",
          "type": "string"
        },
        {
          "name": "startTime",
          "type": "uint256"
        },
        {
          "name": "duration",
          "type": "uint256"
        },
        {
          "name": "invitees",
          "type": "address[]"
        }
      ],
      "name": "scheduleConference",
      "outputs": [],
      "payable": false,
      "stateMutability": "nonpayable",
      "type": "function"
    },
    {
      "constant": true,
      "inputs": [
        {
          "name": "timeAfter",
          "type": "uint256"
        }
      ],
      "name": "getConferences",
      "outputs": [
        {
          "name": "",
          "type": "string"
        },
        {
          "name": "",
          "type": "address"
        },
        {
          "name": "",
          "type": "string"
        },
        {
          "name": "",
          "type": "uint256"
        },
        {
          "name": "",
          "type": "uint256"
        },
        {
          "name": "",
          "type": "uint256"
        }
      ],
      "payable": false,
      "stateMutability": "view",
      "type": "function"
    }
  ],
  "bytecode": "0x608060405234801561001057600080fd5b506040516020806109258339810180604052810190808051906020019092919050505080806000806101000a81548173ffffffffffffffffffffffffffffffffffffffff021916908373ffffffffffffffffffffffffffffffffffffffff16021790555050506108a0806100856000396000f300608060405260043610610057576000357c0100000000000000000000000000000000000000000000000000000000900463ffffffff1680633998fdd31461005c5780635e1a496c146100b3578063ec35ea151461020d575b600080fd5b34801561006857600080fd5b5061007161028c565b604051808273ffffffffffffffffffffffffffffffffffffffff1673ffffffffffffffffffffffffffffffffffffffff16815260200191505060405180910390f35b3480156100bf57600080fd5b506100de600480360381019080803590602001909291905050506102b1565b60405180806020018773ffffffffffffffffffffffffffffffffffffffff1673ffffffffffffffffffffffffffffffffffffffff16815260200180602001868152602001858152602001848152602001838103835289818151815260200191508051906020019080838360005b8381101561016657808201518184015260208101905061014b565b50505050905090810190601f1680156101935780820380516001836020036101000a031916815260200191505b50838103825287818151815260200191508051906020019080838360005b838110156101cc5780820151818401526020810190506101b1565b50505050905090810190601f1680156101f95780820380516001836020036101000a031916815260200191505b509850505050505050505060405180910390f35b34801561021957600080fd5b5061028a600480360381019080803590602001908201803590602001919091929391929390803590602001908201803590602001919091929391929390803590602001909291908035906020019092919080359060200190820180359060200191909192939192939050505061054b565b005b6000809054906101000a900473ffffffffffffffffffffffffffffffffffffffff1681565b606060006060600080600080600080600260003373ffffffffffffffffffffffffffffffffffffffff1673ffffffffffffffffffffffffffffffffffffffff1681526020019081526020016000209250600091505b82600201805490508210156104fa57826002018281548110151561032657fe5b9060005260206000209060060201600301548a1115610344576104ed565b826002018281548110151561035557fe5b90600052602060002090600602019050806000018160010160009054906101000a900473ffffffffffffffffffffffffffffffffffffffff1682600201836003015484600401548560050180549050858054600181600116156101000203166002900480601f0160208091040260200160405190810160405280929190818152602001828054600181600116156101000203166002900480156104395780601f1061040e57610100808354040283529160200191610439565b820191906000526020600020905b81548152906001019060200180831161041c57829003601f168201915b50505050509550838054600181600116156101000203166002900480601f0160208091040260200160405190810160405280929190818152602001828054600181600116156101000203166002900480156104d55780601f106104aa576101008083540402835291602001916104d5565b820191906000526020600020905b8154815290600101906020018083116104b857829003601f168201915b5050505050935098509850985098509850985061053f565b8180600101925050610306565b60008060008060206040519081016040528060008152509392919060206040519081016040528060008152509291908292508191508090509850985098509850985098505b50505091939550919395565b600060018989604051808383808284378201915050925050509081526020016040518091039020905088888260000191906105879291906106ec565b50338160010160006101000a81548173ffffffffffffffffffffffffffffffffffffffff021916908373ffffffffffffffffffffffffffffffffffffffff16021790555086868260020191906105de9291906106ec565b50848160030181905550838160040181905550828282600501919061060492919061076c565b507f9687a96d2065c77c0926ca0180854e8adce339c57e9e6e9b5b7e0a2a5386a87f338a8a8a8a8a8a8a8a604051808a73ffffffffffffffffffffffffffffffffffffffff1673ffffffffffffffffffffffffffffffffffffffff16815260200180602001806020018781526020018681526020018060200184810384528c8c82818152602001925080828437820191505084810383528a8a828181526020019250808284378201915050848103825286868281815260200192506020028082843782019150509c5050505050505050505050505060405180910390a1505050505050505050565b828054600181600116156101000203166002900490600052602060002090601f016020900481019282601f1061072d57803560ff191683800117855561075b565b8280016001018555821561075b579182015b8281111561075a57823582559160200191906001019061073f565b5b509050610768919061080c565b5090565b8280548282559060005260206000209081019282156107fb579160200282015b828111156107fa57823573ffffffffffffffffffffffffffffffffffffffff168260006101000a81548173ffffffffffffffffffffffffffffffffffffffff021916908373ffffffffffffffffffffffffffffffffffffffff1602179055509160200191906001019061078c565b5b5090506108089190610831565b5090565b61082e91905b8082111561082a576000816000905550600101610812565b5090565b90565b61087191905b8082111561086d57600081816101000a81549073ffffffffffffffffffffffffffffffffffffffff021916905550600101610837565b5090565b905600a165627a7a723058200728f2ba45a81a8aa87a32caa6d5215e32f6930602d49a9910ff6aa236b5b98d0029",
  "source": "pragma solidity ^0.4.23;\n\nimport \"./Utils.sol\";\nimport \"./IService.sol\";\n\ncontract ConferenceService is IService {\n\n    enum ConferenceStatus {Inactive, Active}\n\n    event ConferenceScheduled(address creatorAddr, string confId, string topic, uint256 startTime, uint duration, address[] invitees);\n\n    mapping(string => Conference) private conferences;\n\n    constructor(address serviceManagerAddr) public IService(serviceManagerAddr) {}\n\n    struct User {\n        address addr;\n        string displayName;\n        Conference[] conferences;           // to do: need to sort\n    }\n\n    mapping(address => User) private users;\n\n    function scheduleConference(string confId, string topic, uint256 startTime, uint duration, address[] invitees) external {\n        //require (!Utils.isNull(topic), \"meeting topic is null\");\n        //require (duration > 0, \"meeting duration must > 0\");\n        //require (startTime > 0, \"meeting start time must > 0\");\n\n        Conference storage conf = conferences[confId];\n        conf.confId = confId;\n        conf.creatorAddr = msg.sender;\n        conf.topic = topic;\n        conf.startTime = startTime;\n        conf.duration = duration;\n        conf.invitees = invitees;\n\n        //insertConferenceToUser(conf);\n\n        emit ConferenceScheduled(msg.sender, confId, topic, startTime, duration, invitees);\n    }\n\n    function getConferences(uint256 timeAfter) external view returns (string, address, string, uint256, uint, uint) {\n        User storage user = users[msg.sender];\n\n        for (uint i = 0; i < user.conferences.length; i++) {\n            if (timeAfter > user.conferences[i].startTime) {\n                continue;\n            }\n\n            Conference storage conference = user.conferences[i];\n            return (conference.confId, conference.creatorAddr, conference.topic, conference.startTime,\n                conference.duration, conference.invitees.length);\n        }\n\n        return (\"\", address(0), \"\", 0, 0, 0);\n    }\n\n    function insertConferenceToUser(Conference conf) internal {\n        User storage user = users[msg.sender];\n        user.conferences.push(conf);\n\n        for (uint i = 0; i < conf.invitees.length; i++) {\n            User storage invitee = users[conf.invitees[i]];\n            invitee.conferences.push(conf);\n        }\n    }\n}\n",
  "sourcePath": "/Users/gangwan/Documents/work/go/src/github.com/gangwn/dvc/api/contract/contracts/ConferenceService.sol",
  "compiler": {
    "name": "solc",
    "version": "0.4.24+commit.e67f0147.Emscripten.clang"
  },
  "schemaVersion": "2.0.1",
  "updatedAt": "2018-10-13T04:22:51.649Z"
}