{
  "contractName": "IService",
  "abi": [
    {
      "constant": true,
      "inputs": [],
      "name": "serviceManager",
      "outputs": [
        {
          "name": "",
          "type": "address"
        }
      ],
      "payable": false,
      "stateMutability": "view",
      "type": "function"
    },
    {
      "inputs": [
        {
          "name": "serviceManagerAddr",
          "type": "address"
        }
      ],
      "payable": false,
      "stateMutability": "nonpayable",
      "type": "constructor"
    }
  ],
  "bytecode": "0x608060405234801561001057600080fd5b5060405160208061016b83398101806040528101908080519060200190929190505050806000806101000a81548173ffffffffffffffffffffffffffffffffffffffff021916908373ffffffffffffffffffffffffffffffffffffffff1602179055505060e9806100826000396000f300608060405260043610603f576000357c0100000000000000000000000000000000000000000000000000000000900463ffffffff1680633998fdd3146044575b600080fd5b348015604f57600080fd5b5060566098565b604051808273ffffffffffffffffffffffffffffffffffffffff1673ffffffffffffffffffffffffffffffffffffffff16815260200191505060405180910390f35b6000809054906101000a900473ffffffffffffffffffffffffffffffffffffffff16815600a165627a7a723058201590898045601c2c453be759251751e885f34fc90edf65117ca6b08657a8498e0029",
  "source": "pragma solidity ^0.4.23;\n\nimport \"./ServiceManager.sol\";\n\ncontract IService {\n\n    ServiceManager public serviceManager;\n\n    struct Conference {\n        string confId;\n        address creatorAddr;  // the meeting creator address\n        string topic;\n        uint256 startTime;\n        uint duration;        // seconds\n        address[] invitees;\n    }\n\n    constructor(address serviceManagerAddr) public {\n        serviceManager = ServiceManager(serviceManagerAddr);\n    }\n\n}",
  "sourcePath": "/Users/gangwan/Documents/work/go/src/github.com/gangwn/dvc/api/contract/contracts/IService.sol",
  "compiler": {
    "name": "solc",
    "version": "0.4.24+commit.e67f0147.Emscripten.clang"
  },
  "schemaVersion": "2.0.1",
  "updatedAt": "2018-10-13T04:21:08.649Z"
}