{
  "contractName": "UserService",
  "abi": [
    {
      "constant": true,
      "inputs": [
        {
          "name": "timeAfter",
          "type": "uint256"
        }
      ],
      "name": "getConferences",
      "outputs": [
        {
          "name": "",
          "type": "string"
        },
        {
          "name": "",
          "type": "address"
        },
        {
          "name": "",
          "type": "string"
        },
        {
          "name": "",
          "type": "uint256"
        },
        {
          "name": "",
          "type": "uint256"
        },
        {
          "name": "",
          "type": "uint256"
        }
      ],
      "payable": false,
      "stateMutability": "view",
      "type": "function"
    }
  ],
  "bytecode": "0x608060405234801561001057600080fd5b50610465806100206000396000f300608060405260043610610041576000357c0100000000000000000000000000000000000000000000000000000000900463ffffffff1680635e1a496c14610046575b600080fd5b34801561005257600080fd5b50610071600480360381019080803590602001909291905050506101a0565b60405180806020018773ffffffffffffffffffffffffffffffffffffffff1673ffffffffffffffffffffffffffffffffffffffff16815260200180602001868152602001858152602001848152602001838103835289818151815260200191508051906020019080838360005b838110156100f95780820151818401526020810190506100de565b50505050905090810190601f1680156101265780820380516001836020036101000a031916815260200191505b50838103825287818151815260200191508051906020019080838360005b8381101561015f578082015181840152602081019050610144565b50505050905090810190601f16801561018c5780820380516001836020036101000a031916815260200191505b509850505050505050505060405180910390f35b6060600060606000806000806000806000803373ffffffffffffffffffffffffffffffffffffffff1673ffffffffffffffffffffffffffffffffffffffff1681526020019081526020016000209250600091505b82600201805490508210156103e857826002018281548110151561021457fe5b9060005260206000209060060201600301548a1115610232576103db565b826002018281548110151561024357fe5b90600052602060002090600602019050806000018160010160009054906101000a900473ffffffffffffffffffffffffffffffffffffffff1682600201836003015484600401548560050180549050858054600181600116156101000203166002900480601f0160208091040260200160405190810160405280929190818152602001828054600181600116156101000203166002900480156103275780601f106102fc57610100808354040283529160200191610327565b820191906000526020600020905b81548152906001019060200180831161030a57829003601f168201915b50505050509550838054600181600116156101000203166002900480601f0160208091040260200160405190810160405280929190818152602001828054600181600116156101000203166002900480156103c35780601f10610398576101008083540402835291602001916103c3565b820191906000526020600020905b8154815290600101906020018083116103a657829003601f168201915b5050505050935098509850985098509850985061042d565b81806001019250506101f4565b60008060008060206040519081016040528060008152509392919060206040519081016040528060008152509291908292508191508090509850985098509850985098505b505050919395509193955600a165627a7a723058207e2da30a84da40ee48f05821065a4fe57591ede5516b34c2aa12df3a6f53efba0029",
  "source": "pragma solidity ^0.4.23;\n\nimport \"./IService.sol\";\n\n\ncontract UserService is IService {\n\tstruct User {\n\t\taddress addr;\n\t\tstring displayName;\n\t\tConference[] conferences;           // to do: need to sort\n\t}\n\n    mapping(address => User) private users;\n\n    function getConferences(uint256 timeAfter) public view returns (string, address, string, uint256, uint, uint){\n        User storage user = users[msg.sender];\n\n        for (uint i = 0; i < user.conferences.length; i++) {\n            if (timeAfter > user.conferences[i].startTime) {\n                continue;\n            }\n\n            Conference storage conference = user.conferences[i];\n            return (conference.confId, conference.creatorAddr, conference.topic, conference.startTime,\n                conference.duration, conference.invitees.length);\n        }\n\n        return (\"\", address(0), \"\", 0, 0, 0);\n    }\n}\n",
  "sourcePath": "/Users/gangwan/Documents/work/go/src/github.com/gangwn/dvc/api/contract/contracts/UserService.sol",
  "compiler": {
    "name": "solc",
    "version": "0.4.24+commit.e67f0147.Emscripten.clang"
  },
  "schemaVersion": "2.0.1",
  "updatedAt": "2018-08-28T11:12:27.854Z"
}