{
  "contractName": "Utils",
  "abi": [
    {
      "constant": true,
      "inputs": [
        {
          "name": "str",
          "type": "string"
        }
      ],
      "name": "isNull",
      "outputs": [
        {
          "name": "",
          "type": "bool"
        }
      ],
      "payable": false,
      "stateMutability": "pure",
      "type": "function"
    }
  ],
  "bytecode": "0x61011c610030600b82828239805160001a6073146000811461002057610022565bfe5b5030600052607381538281f30073000000000000000000000000000000000000000030146080604052600436106056576000357c0100000000000000000000000000000000000000000000000000000000900463ffffffff168063d04ba0b614605b575b600080fd5b60b3600480360381019080803590602001908201803590602001908080601f016020809104026020016040519081016040528093929190818152602001838380828437820191505050505050919291929050505060cd565b604051808215151515815260200191505060405180910390f35b6000606082905060008151141560e5576001915060ea565b600091505b509190505600a165627a7a72305820ff8a8ae6e6abb6d5f380dd450fe58695898c745c8926314d0c710a54730bac670029",
  "source": "pragma solidity ^0.4.23;\n\nlibrary Utils {\n    function isNull(string str) public pure returns (bool) {\n        bytes memory b = bytes(str);\n        if(b.length == 0){\n            return true;\n        } else {\n            return false;\n        }\n    }\n}",
  "sourcePath": "/Users/gangwan/Documents/work/go/src/github.com/gangwn/dvc/api/contract/contracts/Utils.sol",
  "compiler": {
    "name": "solc",
    "version": "0.4.24+commit.e67f0147.Emscripten.clang"
  },
  "schemaVersion": "2.0.1",
  "updatedAt": "2018-08-28T11:19:01.908Z"
}